:100000000C9434000C941D010C9451000C9451007C
:100010000C9451000C9451000C9451000C9451001C
:100020000C9451000C9451000C9451000C9451000C
:100030000C9451000C9451000C9451000C945100FC
:100040000C9451000C9451000C9451000C945100EC
:100050000C9451000C9451000C9451000C945100DC
:100060000C9451000C94510011241FBECFEFD8E026
:10007000DEBFCDBF11E0A0E0B1E0E0E8F2E002C0F9
:1000800005900D92A230B107D9F721E0A2E0B1E0CE
:1000900001C01D92A730B207E1F70E9472000C94D4
:1000A0003E010C940000109206011092050110927E
:1000B00004011092030181E080930101109202017A
:1000C00008951092010181E08093020110920401D1
:1000D00010920301089510920201299828985F98C0
:1000E0005E9808958FE087B980EC8AB984B1836007
:1000F00084B97894E9E6F0E0808181608083E89AB1
:100100000E946100C3E0D0E011E04D9B27C08091C8
:100110000101811123C0809100018823D9F010933F
:10012000010110930201109200011092040110923B
:10013000030180910501909106018130910549F1FB
:100140001CF4892B09F137C08230910539F10397EE
:1001500051F131C00E946B000E9453008091020156
:10016000882309F463C080910501909106018130D4
:10017000910579F01CF4892B39F019C08230910572
:1001800069F0039781F013C05F9A5E98289A2998C6
:100190000EC05F985E98289A299A09C05F985E9A67
:1001A0002898299A04C05F9A5E9A28982998809185
:1001B00001018823C1F0809105019091060101970A
:1001C00090930601809305018091030190910401B1
:1001D000019690930401809303018B3E9140ACF013
:1001E0000E946B0012C0809103019091040101975D
:1001F0009093040180930301809105019091060181
:1002000001969093060180930501809105019091DC
:10021000060199232CF4D0930601C093050106C072
:10022000049724F010920601109205018FE097E2E6
:100230000197F1F700C0000068CF1F920F920FB630
:100240000F9211248F939F9387EA91E60197F1F71C
:1002500000C000004A9B06C01092010181E080931B
:10026000020105C081E080930101809302019F910A
:100270008F910F900FBE0F901F901895F894FFCF9D
:0202800001017A
:00000001FF
