S017000050726F6D696E695F737465707065722E73726563CD
S11300000C9434000C9446000C9426010C94460085
S11300100C9446000C9446000C9446000C94460044
S11300200C9446000C9446000C9446000C94460034
S11300300C9446000C9446000C9446000C94460024
S11300400C9446000C9446000C9446000C94460014
S11300500C9446000C9446000C9446000C94460004
S11300600C9446000C94460011241FBECFEFD8E038
S1130070DEBFCDBF21E0A0E0B1E001C01D92A830F9
S1130080B207E1F70E9466000C944F010C94000043
S113009010920701109206011092030110920201BE
S11300A0109201011092000108951092010181E063
S11300B0809300011092030110920201089510929E
S11300C00001299828985F985E9808958FE087B971
S11300D080EC8AB984B1836084B97894E9E6F0E06D
S11300E0808184608083E99A0E945500C3E0D0E057
S11300F04A9B08C080910101811104C00E945F00E5
S11301000E9448008091040190910501813091057D
S113011079F01CF4892B39F019C08230910569F00B
S1130120039781F013C0439A429A419840980EC0B5
S11301304398429A419A409809C043984298419AF8
S1130140409A04C0439A42984198409A8091000191
S1130150882309F463C080910601909107018130DE
S1130160910579F01CF4892B39F019C0823091057E
S113017069F0039781F013C05F9A5E98289A2998D2
S11301800EC05F985E98289A299A09C05F985E9A73
S11301902898299A04C05F9A5E9A28982998809191
S11301A00101882399F0809106019091070101963D
S11301B090930701809306018091020190910301BD
S11301C00196909303018093020109C08091060176
S11301D09091070101979093070180930601809104
S11301E0060190910701843091052CF010920701CB
S11301F01092060106C0992324F4D0930701C093FA
S1130200060180910201909103018331924034F000
S113021010920301109202010E945F008091040178
S1130220909105010196843091052CF49093050179
S11302308093040104C010920501109204018FE020
S113024097E20197F1F700C0000052CF1F920F927E
S11302500FB60F9211248F939F9387EA91E601972B
S1130260F1F700C000004B9B0AC081E080930101BC
S113027010920301109202018093000109C01092B0
S11302800101109203011092020181E080930001A8
S11302909F918F910F900FBE0F901F901895F89417
S10502A0FFCF8A
S9030000FC
