:100000000C9434000C9431010C9451000C94510068
:100010000C9451000C9451000C9451000C9451001C
:100020000C9451000C9451000C9451000C9451000C
:100030000C9451000C9451000C9451000C945100FC
:100040000C9451000C9451000C9451000C945100EC
:100050000C9451000C9451000C9451000C945100DC
:100060000C9451000C94510011241FBECFEFD8E026
:10007000DEBFCDBF11E0A0E0B1E0E8EBF2E002C0EE
:1000800005900D92A230B107D9F721E0A2E0B1E0CE
:1000900001C01D92A930B207E1F70E9472000C94D2
:1000A0005A010C940000109208011092070110925E
:1000B00004011092030181E080930001109202017B
:1000C000089581E080930001809302011092040161
:1000D00010920301089510920201299828985F98C0
:1000E0005E9808958FE087B980EC8AB984B1836007
:1000F00084B97894E9E6F0E0808181608083E89AB1
:100100000E946100C3E0D0E04D9B08C080910001D7
:10011000811104C00E946B000E9453008091050170
:10012000909106018130910579F01CF4892B39F00A
:1001300019C08230910569F0039781F013C0439A8A
:10014000429A419840980EC04398429A419A4098EA
:1001500009C043984298419A409A04C0439A4298F1
:100160004198409A80910201882309F462C08091ED
:100170000701909108018130910579F01CF4892BD9
:1001800039F019C08230910569F0039781F013C0EE
:100190005F9A5E98289A29980EC05F985E98289A70
:1001A000299A09C05F985E9A2898299A04C05F9A94
:1001B0005E9A2898299880910001882399F080916F
:1001C000070190910801019790930801809307011E
:1001D0008091030190910401019690930401809312
:1001E000030109C080910701909108010196909345
:1001F00008018093070180910701909108019923DC
:100200002CF4D0930801C093070106C0049724F092
:10021000109208011092070180910301909104014E
:100220008331924034F010920401109203010E9435
:100230006B00809105019091060101968430910533
:100240002CF4909306018093050104C010920601DE
:10025000109205018FE097E20197F1F700C00000CE
:1002600053CF1F920F920FB60F9211248F939F932B
:1002700087EA91E60197F1F700C000004A9B0AC0A7
:1002800010920001109204011092030181E080930A
:10029000020109C081E080930001109204011092D4
:1002A0000301809302019F918F910F900FBE0F90D9
:0802B0001F901895F894FFCF90
:0202B800010043
:00000001FF
